:100000000202F1740E2FF8E6F5A022020184EFD36C
:10001000940340037FFF2274222F2FF8E620E5F49B
:10002000C2AFE64430F6D2AFAE0CEEC39F50210E05
:10003000741A2EF8E6F908E618BE030274FFFDED07
:1000400069600909E71919F7090980F3161680DABA
:10005000EED39F400405810581EED39F4022741AA0
:100060002EF808E6F9EEB50C02A981180606E6FDA1
:10007000ED6960091919E70909F71980F31E80D99C
:10008000EF241AF8E604F8EF2F0490042993F608F9
:10009000EF2F93F67F0022EFD3940340037FFF22DC
:1000A000EF232422F8E630E5F4C2AFE6548CF6D212
:1000B000AFE50CB5070A741A2FF8E6F5810201FACC
:1000C000502E741B2FF8E6BF030274FFFD18E6F9EB
:1000D000741A2FF8FBE6FCE96C6008A805E7F61D2A
:1000E0001980F4A803A6051FE50CB507E37F0022DD
:1000F000741B2FF8E6FD1886010F741A2FF8A6015D
:10010000088604E50CB50702AC81ED6C60080D09AA
:10011000A805E6F780F4E50CB507DE89817F0022AB
:100120008FF0E4FFFEE50C232421F8C2A930F70D7F
:100130007F08E6600B2DF660325030800730F10604
:10014000EDF660277E020830F010C2AFE610E7251A
:100150000E30E20CD2AF7F048014C2AFE610E71578
:1001600054EC4EF6D2AFD2A90201FA7F0808EF4450
:1001700083F4C2AF56C6D2AFD2A954804FFF22C279
:10018000AF80FE3212018385D00B75D008AAE0C281
:100190008CE58A24F7F58AE58C34D8F58CD28CEC82
:1001A000241BF8E6BC030274FFC39581B41400401D
:1001B000CE7904782116E608700BC2AFE630E10371
:1001C0004418F6D2AF08D9EDEA8BD030000122D521
:1001D0000DFCC0E0C0D0C0F0C083C082C000C00130
:1001E000C002C003C004C005C006C007E50C23243C
:1001F00022F87440C2AF46F6D2AFD200E50CFF231E
:100200002422F80F0808BF04047F007822E630E4B7
:10021000F200E50CC39F5020050C741A250CF8E67B
:10022000FDA68108E6AE0CBE030274FFCDF8E86DB2
:1002300060E008E6C0E080F6E50CD39F4027E50CBF
:10024000241BF8E6AE0CBE030274FFFD18E6CDF8E1
:10025000E5816D6006D0E0F61880F5E50C241AC83B
:10026000F6150C80D3750D05E50C232422F87F04C8
:10027000C2AFE610E61E30E00310E20C7F0030E172
:100280000730E3047F0854F4547CC6D2AF54804254
:1002900007C20022F6D2AFD007D006D005D004D0D6
:1002A00003D002D001D000D082D083D0F0D0D0D003
:1002B000E0C20022781AA68174036006FF0876FF68
:1002C000DFFB7F04E47821F608F608DFFA7822766F
:1002D00030900429740193C0E0E493C0E0750D05EB
:1002E000438901758AF0758CD8D28CD2AFD2A922FD
:1002F00003787FE4F6D8FD7581280203380202B442
:10030000E493A3F8E493A34003F68001F208DFF43A
:100310008029E493A3F85407240CC8C333C4540FB2
:100320004420C8834004F456800146F6DFE4800B85
:100330000102040810204080900408E47E019360CC
:10034000BCA3FF543F30E509541FFEE493A36001B2
:100350000ECF54C025E060A840B8E493A3FAE4931C
:10036000A3F8E493A3C8C582C8CAC583CAF0A3C8CA
:10037000C582C8CAC583CADFE9DEE780BE7590FFC3
:100380007D327F02120120E4F519AF19EF3395E0B9
:10039000FEC3EF9408EE6480948050117D327F029A
:1003A000120120E59025E0F590051980DD7590019A
:1003B0007D327F02120120E4F519AF19EF3395E089
:1003C000FEC3EF9409EE6480948050B17D327F02C9
:1003D000120120E59025E004F590051980DCE4F594
:1003E00018AF18EF3395E0FEC3EF9408EE648094E5
:1003F0008050EB7DF47F02120120AF18EF3395E0BF
:10040000FE120003051880D90A0E3F065B4F666D89
:100410007D077F6F007F0212000EE4FF0200977DD0
:10042000027F02120120B28022041503DE041F03A2
:010430007D4E
:00000001FF
